:100000000C94B5000C94D2000C94E2080C94D2002D
:100010000C94D2000C94D2000C94D2000C94D20018
:100020000C94D2000C94D2000C94D2000C94F908D9
:100030000C94D2000C94D2000C94D2000C94D200F8
:100040000C94D2000C94D2000C94D2000C94D200E8
:100050000C94D2000C94D2000C94D2000C94D200D8
:100060000C94D2000C94D2006E616E00696E660032
:1000700000407A10F35A00A0724E18090010A5D45F
:10008000E80000E87648170000E40B54020000CABC
:100090009A3B000000E1F505000080969800000002
:1000A00040420F000000A086010000001027000061
:1000B0000000E803000000006400000000000A00E7
:1000C000000000000100000000002C76D888DC67EA
:1000D0004F0823DFC1DFAE59E1B1B796E5E3E45342
:1000E000C63AE651997696E8E6C28426EB898C9B5F
:1000F00062ED407C6FFCEFBC9C9F40F2BAA56FA5FF
:10010000F490055A2AF75C936B6CF9676DC11BFC80
:10011000E0E40D47FEF520E6B500D0ED902E03009B
:10012000943577050080841E080000204E0A0000E8
:1001300000C80C333333330F986E12831141EF8DA7
:100140002114893BE65516CFFEE6DB18D1844B38E7
:100150001BF77C1D901DA4BBE424203284725E2218
:100160008100C9F124ECA1E53D2711241FBECFEF8A
:10017000D8E0DEBFCDBF11E0A0E0B1E0E4E4F0E202
:1001800002C005900D92AC37B107D9F721E0ACE77A
:10019000B1E001C01D92AE39B207E1F70E94C70479
:1001A0000C9420100C9400005C9808955C9A0895BB
:1001B000CF93DF93C82FD62F6623C1F12F9AC7FFA5
:1001C00037C0289AC6FF36C05F9AC5FF35C05E9A11
:1001D000C4FF34C05D9A00000E94D60000C000C079
:1001E0000E94D400C3FF2CC0289AC2FF2BC05F9A84
:1001F000C1FF2AC05E9AC0FF29C05D9A00000E941C
:10020000D60000C000C00E94D400289A5F9A5E9A6F
:100210005D9AD1111DC0C430D8F48FEC9CE00197D9
:10022000F1F700C00000DF91CF9108952F98C7CF5C
:100230002898C8CF5F98C9CF5E98CACF5D98CBCFBA
:100240002898D3CF5F98D4CF5E98D5CF5D98D6CF7E
:100250009AE69A95F1F700C0E6CF60E00C94D800DA
:1002600080580C942D0181E00C942D0182E00C94B7
:100270002D0161E00C94D800CF93DF93EC018991BC
:10028000811103C0DF91CF9108950E943901F7CF0A
:10029000CF93DF93EC01FE0184912196811103C07D
:1002A000DF91CF9108950E943901F5CF549A279A92
:1002B000209A579A569A559A0E94D4002F98289AB5
:1002C0005F9A5E9A5D9A8FE295E70197F1F700C019
:1002D000000028985F9800000E94D60000C000C06F
:1002E0000E94D40087E090E20197F1F700C000007F
:1002F0000E94D60000C000C00E94D40087EC90E0AD
:100300000197F1F700C000000E94D60000C000C0B5
:100310000E94D4009AE69A95F1F700C05D9800001B
:100320000E94D60000C000C00E94D4008AE68A95D0
:10033000F1F700C05D9800000E94D60000C000C028
:100340000E94D40000C000C0289A00000E94D6007D
:1003500000C000C00E94D4009AE69A95F1F700C050
:1003600088E00E942D010E94330186E00E942D0149
:100370008CE00C942D0180917C00826080937C0045
:1003800080917C00816080937C0080917A00806401
:1003900080937A0080917A0086FDFCCF609178008E
:1003A0007091790080E090E00E94A50926E636E68B
:1003B00046E651E40E9433096093880170938901F5
:1003C00080938A0190938B01089580917C008260D4
:1003D00080937C0080917C008E7F80937C00809154
:1003E0007A00806480937A0080917A0086FDFCCF49
:1003F0008091780090917900909387018093860195
:10040000089580917C008D7F80937C0080917C009A
:100410008E7F80937C0080917A00806480937A0044
:1004200080917A0086FDFCCF209178003091790090
:1004300044E6429FC001439F900D11246AE575E098
:100440000E94E20D655271097093810160938001F1
:1004500008950097C1F4589A599A5A9A2E9A85305D
:10046000910501F5589A59985A9A2E988A30910513
:1004700001F55898599A5A982E9A0F9709F05CC02E
:10048000589859981BC08130910529F4589A599A67
:100490005A9A2E98E4CF8230910591F4589A599A3D
:1004A0005A982E9A8630910591F4589A59985A98EC
:1004B0002E9A8B30910591F45898599A5A983BC0CE
:1004C0008330910599F4589A599A5A982E98873002
:1004D000910521F5589A59985A982E988C30910583
:1004E00021F5589859985A9A2E9A08958430910572
:1004F00009F0B5CF589A59985A9A2E9A8930910591
:1005000009F0B4CF5898599A5A9A2E988E3091057E
:1005100009F0B3CF589859985A98E6CF883091058A
:1005200069F75898599A5A9A2E9A8D30910571F711
:10053000589859985A9A2E98089560918801709108
:10054000890180918A0190918B0120E030E048E29E
:1005500052E40E942E0987FF08C0809102010E9488
:10056000300182E391E00E943C0180910001909172
:10057000010164EF71E00E94F60D892B41F4809136
:1005800002010E94300188E391E00C943C0108953F
:1005900080918001909181010A97F4F0809180010F
:1005A000909181014AE050E060E971E00E942F0FD4
:1005B000809106010E94300187E391E00E943C0196
:1005C000809106010E94300180E991E00E943C0187
:1005D0008DE391E00E943C01809180019091810126
:1005E0000A9724F5809180019091810197FD1EC0AA
:1005F00080918001909181014AE050E060E971E0D2
:100600000E942F0F809106010E94300187E391E044
:100610000E943C01809106010E94300180E991E036
:100620000E943C018DE391E00E943C018091800199
:100630009091810197FF25C0809180019091810167
:10064000873F9F4FF4F080918001909181014AE0B3
:1006500050E060E971E00E942F0F809106010E9436
:10066000300187E391E00E943C01809106010E94E5
:10067000300180E991E00E943C018DE391E00E940D
:100680003C018091800190918101873F9F4FF4F45C
:1006900080918001909181014AE050E060E971E031
:1006A0000E942F0F809106010E94300187E391E0A4
:1006B0000E943C01809106010E94300180E991E096
:1006C0000E943C018DE391E00C943C0108956091FF
:1006D00088017091890180918A0190918B0120E0BD
:1006E00030E040E251E40E94570A87FD2AC0809121
:1006F0000C010E9430018091880190918901A091A4
:100700008A01B0918B01BF93AF939F938F938FE337
:1007100091E09F938F9380E991E09F938F930E9444
:100720008F0F80E991E00E943C0189E391E00E94F3
:100730003C018DB79EB708960FB6F8949EBF0FBECA
:100740008DBF609188017091890180918A0190919B
:100750008B0120E030E040E251E40E942E0987FF47
:100760002EC080910C010E9430018BE391E00E9429
:100770003C018091880190918901A0918A01B091FA
:100780008B01BF93AF939F938F9386E491E09F93E8
:100790008F9380E991E09F938F930E948F0F80E960
:1007A00091E00E943C018DB79EB708960FB6F89471
:1007B0009EBF0FBE8DBF89E391E00C943C0108956C
:1007C00080910A010E943001209116013091170199
:1007D00080918601909187018217930724F48BE31F
:1007E00091E00E943C012091160130911701809107
:1007F000860190918701821793071CF080E00C948A
:1008000039010895809108010E9430018091800192
:100810009091810197FF03C081E00C9439018BE333
:1008200091E00C943C0180919A0190919B014AE0E7
:1008300050E060E971E00E942F0F809104010E9456
:10084000300180E991E00E943C0180919A019091F1
:100850009B010A9720F48DE491E00E943C01809175
:100860009A0190919B010A9720F082E591E00C9407
:100870003C0108951C9927C02FEF87E893E1215090
:1008800080409040E1F700C000001C996FC080914B
:100890008201909183018130910509F058C0109236
:1008A00083011092820180E40E9430018BE391E089
:1008B0000E943C012FEF84E39CE021508040904057
:1008C000E1F700C00000809114019091150101979B
:1008D00041F480917E010E94300188E591E00E9400
:1008E0003C018091140190911501029741F480918F
:1008F0007E010E9430018EE591E00E943C018091D2
:10090000140190911501039741F480917E010E949A
:10091000300184E691E00E943C0180918201909137
:100920008301019739F480E40E94300186E591E06B
:100930000E943C018091820190918301892B31F5C5
:1009400080E40E9430018BE391E00C943C01892B00
:1009500009F0B9CF81E090E0909383018093820108
:1009600080E40E94300186E591E0A2CF80911401DD
:10097000909115018330910534F4019690931501FF
:100980008093140197CF81E090E0F8CF08952498E8
:100990002C9A80917C00806480937C0080917A0006
:1009A000826080937A0080917A00846080937A00DC
:1009B00080917A00806880937A0080917C008260C8
:1009C00080937C0080917C00816080937C0080918A
:1009D0007C00826080937C0080917C008E7F80937D
:1009E0007C0080917C00816080937C0080917C0001
:1009F0008D7F80937C00509A519A529A269A589AE9
:100A0000599A5A9A2E9A0E94560180E40E942D010A
:100A100080E00E94390180E10E9439018CE10E944E
:100A200039018FE10E9439018CE10E94390180E196
:100A30000E94390180E00E94390180E00E94390162
:100A400080E00E94300188E40E942D0180E00E9435
:100A5000390181E00E94390187E00E9439018FE16C
:100A60000E94390187E00E94390181E00E9439012A
:100A700080E00E94390180E00E94390180E00E94FC
:100A8000300180E50E942D018EE00E9439018EE048
:100A90000E9439018EE00E9439018EE00E943901E6
:100AA0008EE00E9439018EE00E9439018EE00E94A2
:100AB00039018EE00E94390180E00E9430010E94DD
:100AC00033018AE691E00E943C0180E40E943001FB
:100AD00081E791E00E943C012FEF89E698E12150E7
:100AE00080409040E1F700C000000E94330182E4A2
:100AF0000E94300182E00E94390184E40E943001AA
:100B000089E791E00E943C018091690088608093B0
:100B10006900E99A809181008860809381008091CA
:100B20008100846080938100809181008160809346
:100B3000810080916F00826080936F00789484E8D8
:100B40009EE1909389008093880053985B9A8CE093
:100B5000282E312C9BE0492E512C2AE0622E712C3C
:100B600009E010E038E0E32EF12C47E0C42ED12C50
:100B700056E0A52EB12C65E0862E912C0E943A04F9
:100B80000E94BB010E9401020E94E5010E94E00355
:100B90000E9402040E949D02809100019091010137
:100BA000019681302DE7920754F5909301018093CF
:100BB0000001809100019091010166E970E00E94BE
:100BC000F60D892B31F40E9467030E94C8020E942F
:100BD00013042091160130911701809186019091A4
:100BE00087018217930774F48091820190918301A9
:100BF000019741F480E090E00E942902BFCF81E09C
:100C000090E0D3CF20911601309117018091860199
:100C100090918701821793074CF480918201909103
:100C20008301892B19F481E090E0E6CF8091800167
:100C300090918101C0910E01D0910F018C179D07F9
:100C40002CF5609188017091890180918A019091C1
:100C50008B012091100130911101409112015091AE
:100C600013010E94570A18168CF420911601309136
:100C7000170180918601909187018217930734F0C4
:100C800082E090E0909385018093840180918001BF
:100C9000909181018C179D072CF5609188017091CE
:100CA000890180918A0190918B01209110013091EE
:100CB000110140911201509113010E94570A181618
:100CC0008CF4209118013091190180918601909146
:100CD00087018217930734F083E090E090938501B9
:100CE0008093840180918001909181018C179D07F0
:100CF0002CF5609188017091890180918A01909111
:100D00008B012091100130911101409112015091FD
:100D100013010E94570A18168CF420911A01309181
:100D20001B0180918601909187018217930734F00F
:100D300084E090E09093850180938401809180010C
:100D4000909181018C179D071CF56091880170912D
:100D5000890180918A0190918B012091100130913D
:100D6000110140911201509113010E94570A181667
:100D70007CF420911C0130911D018091860190919D
:100D800087018217930724F0909285018092840155
:100D900080918001909181018C179D071CF56091D5
:100DA00088017091890180918A0190918B01209135
:100DB00010013091110140911201509113010E94D4
:100DC000570A18167CF420911E0130911F01809162
:100DD0008601909187018217930724F0B0928501D4
:100DE000A092840180918001909181018C179D07D0
:100DF0001CF5609188017091890180918A01909120
:100E00008B012091100130911101409112015091FC
:100E100013010E94570A18167CF42091200130918A
:100E2000210180918601909187018217930724F018
:100E3000D0928501C09284018091800190918101BE
:100E40008C179D074CF56091880170918901809104
:100E50008A0190918B0120911001309111014091F4
:100E60001201509113010E94570A1816ACF42091F8
:100E70002201309123018091860190918701821790
:100E8000930754F08091140190911501029724F07A
:100E9000F0928501E092840180918001909181011E
:100EA0008C179D074CF560918801709189018091A4
:100EB0008A0190918B012091100130911101409194
:100EC0001201509113010E94570A1816ACF4209198
:100ED000240130912501809186019091870182172C
:100EE000930754F08091140190911501029724F01A
:100EF000109385010093840180918001909181017C
:100F00008C179D074CF56091880170918901809143
:100F10008A0190918B012091100130911101409133
:100F20001201509113010E94570A1816ACF4209137
:100F300026013091270180918601909187018217C7
:100F4000930754F08091140190911501029724F0B9
:100F5000709285016092840180918001909181015D
:100F60008C179D074CF560918801709189018091E3
:100F70008A0190918B0120911001309111014091D3
:100F80001201509113010E94570A1816ACF42091D7
:100F90002801309129018091860190918701821763
:100FA000930754F08091140190911501029724F059
:100FB000509285014092840180918001909181013D
:100FC0008C179D074CF56091880170918901809183
:100FD0008A0190918B012091100130911101409173
:100FE0001201509113010E94570A1816ACF4209177
:100FF0002A0130912B0180918601909187018217FF
:10100000930754F08091140190911501039724F0F7
:10101000309285012092840180918001909181011C
:101020008C179D075CF56091880170918901809112
:101030008A0190918B012091100130911101409112
:101040001201509113010E94570A1816BCF4209106
:101050002C0130912D01809186019091870182179A
:10106000930764F08091140190911501039734F077
:101070008DE090E0909385018093840180918001C0
:10108000909181018C179D075CF5609188017091AA
:10109000890180918A0190918B01209110013091FA
:1010A000110140911201509113010E94570A181624
:1010B000BCF420912E0130912F01809186019091F6
:1010C00087018217930764F08091140190911501B4
:1010D000039734F08EE090E0909385018093840133
:1010E00080918001909181018C179D075CF5609142
:1010F00088017091890180918A0190918B012091E2
:1011000010013091110140911201509113010E9480
:10111000570A1816BCF420913001309131018091AA
:101120008601909187018217930764F080911401E2
:1011300090911501039734F08FE090E09093850132
:101140008093840180918401909185010E942902FD
:101150000E94BB010E940102609188017091890187
:1011600080918A0190918B012091100130911101A1
:1011700040911201509113010E942E09181664F437
:10118000209180013091810180910E0190910F0199
:10119000821793070CF0F2CC809186019091870121
:1011A000883C91050CF4EACC8091840190918501F2
:1011B00001970E9429020E94BB010E9401020E9425
:1011C000E501CACF1F920F920FB60F9211248F9391
:1011D0009F9380917C0190917D01019690937D0178
:1011E00080937C019F918F910F900FBE0F901F9065
:1011F00018951F920F920FB60F9211245F936F9361
:101200007F938F939F93AF93BF9380917C01909135
:101210007D0163E070E00E94E20D70939B0160939A
:101220009A0180919A0190919B018436910530F04A
:1012300083E690E090939B0180939A0110927D0148
:1012400010927C01BF91AF919F918F917F916F918F
:101250005F910F900FBE0F901F9018950E94E209AA
:1012600008F481E008950E9447090C941D0A0E9429
:10127000160A58F00E940F0A40F029F45F3F29F047
:101280000C94060A51110C94510A0C940C0A0E94F9
:101290002E0A68F39923B1F3552391F3951B550B4F
:1012A000BB27AA2762177307840738F09F5F5F4F39
:1012B000220F331F441FAA1FA9F335D00E2E3AF078
:1012C000E0E832D091505040E695001CCAF72BD090
:1012D000FE2F29D0660F771F881FBB1F26173707E1
:1012E0004807AB07B0E809F0BB0B802DBF01FF2713
:1012F00093585F4F3AF09E3F510578F00C94060AE0
:101300000C94510A5F3FE4F3983ED4F386957795A9
:101310006795B795F7959F5FC9F7880F911D9695CB
:10132000879597F90895E1E0660F771F881FBB1F27
:10133000621773078407BA0720F0621B730B840BD4
:10134000BA0BEE1F88F7E0950895E89409C097FB63
:101350003EF490958095709561957F4F8F4F9F4F8C
:101360009923A9F0F92F96E9BB279395F6958795D0
:1013700077956795B795F111F8CFFAF4BB0F11F493
:1013800060FF1BC06F5F7F4F8F4F9F4F16C088233A
:1013900011F096E911C0772321F09EE8872F762F70
:1013A00005C0662371F096E8862F70E060E02AF0B1
:1013B0009A95660F771F881FDAF7880F969587959D
:1013C00097F90895990F0008550FAA0BE0E8FEEF72
:1013D00016161706E807F907C0F012161306E407F9
:1013E000F50798F0621B730B840B950B39F40A26F2
:1013F00061F0232B242B252B21F408950A2609F4D0
:10140000A140A6958FEF811D811D089597F99F67D3
:1014100080E870E060E008959FEF80EC089500247C
:101420000A941616170618060906089500240A9449
:1014300012161306140605060895092E0394000CCF
:1014400011F4882352F0BB0F40F4BF2B11F460FF5E
:1014500004C06F5F7F4F8F4F9F4F089557FD905887
:10146000440F551F59F05F3F71F04795880F97FB68
:10147000991F61F09F3F79F0879508951216130622
:101480001406551FF2CF4695F1DF08C01616170651
:101490001806991FF1CF8695710561050894089586
:1014A000E894BB2766277727CB0197F908950E9418
:1014B000E20908F48FEF0895A0E1B0E0E2E6FAE077
:1014C0000C940A0E7C011B016A01FC011782168232
:1014D000838181FF6EC39E012F5F3F4F5901F7014A
:1014E0009381F10193FD859193FF81911F018823E1
:1014F00009F4CDC2853239F493FD859193FF819132
:101500001F01853239F4B70190E00E945F0F360168
:101510006301E5CF512C912C00E0003238F48B327E
:1015200009F190F48032F9F0833209F107FD34C0FB
:1015300020ED280F2A3020F506FF1BC0FAE05F9E41
:10154000200D1124522E05C08D3279F0803371F7B1
:101550000160F10193FD859193FF81911F0181113C
:10156000DCCF1AC002600460F4CF0860F2CF0061E3
:10157000F0CF3AE0939E200D1124922E0062E9CF25
:101580008E3221F406FD83C20064E3CF8C3611F461
:101590000068DFCF8836E9F29BEB980F9330D8F5DF
:1015A0000061805E06FD02C046E0542E102F1F73BE
:1015B0008536C1F5106417FF3EC08BE3851508F42E
:1015C00042C091E0950D9C8727E0360134E0630E20
:1015D000711CF60160817181828193810C85A50166
:1015E0000E94410E6C01F981FE87F0FF02C0F3FFFB
:1015F00030C011FD30C0012F047012FD00E22E85B5
:101600002C70422E09F464C00111D6C2F3E0F91522
:1016100020F1412C36C09BE9980F933008F077C138
:101620000F7EC0CF863611F41068C5CF552009F45F
:10163000C2CF5A94C0CFE7E0E51548F427E037E081
:10164000532E1C86C2CF27E0FCE3FC87BECF252D9E
:10165000F8CF0DE2D4CF0BE2D2CF83E0492C481A69
:1016600013FD08C0B70180E290E00E945F0F4A942A
:101670004110F8CF002329F0B701802F90E00E949D
:101680005F0F3E8533FF15C098E6C92E90E0D92E36
:101690001071F6018491811111C0442009F438CFF2
:1016A000B70180E290E00E945F0F4A94F6CF84E099
:1016B000D5CF8CE6C82E80E0D82EEACF111180520B
:1016C000B70190E00E945F0F8FEFC81AD80AE1CFF0
:1016D00017FF7DC08C858C0DFE85F4FF04C09A81B8
:1016E000913309F4815018160CF094C08C8789301E
:1016F00010F028E02C8717FF92C01C141D040CF07A
:1017000091C0C601019601110196552031F0252D99
:1017100030E02F5F3F4F820F931F292D30E082175B
:10172000930714F4492C481A812F897011F4411041
:101730007CC0002329F0B701802F90E00E945F0F4A
:1017400013FD02C0411078C017FF91C04601D7FEBB
:1017500002C0812C912CC601019688199909F501C6
:10176000E80FF91FF88BEF8796018C85281B31094C
:101770003D872C87052D10E01195019511099FEFEC
:101780008916990629F4B7018EE290E00E945F0F56
:10179000C814D9040CF457C0EC85FD85E815F9058B
:1017A0000CF051C0EF85F8898081F1E08F1A910823
:1017B0002F8538892F5F3F4F388B2F8780169106F2
:1017C0000CF443C0B70190E00E945F0FD8CF16FD24
:1017D00092CFE52DF0E0EC15FD0534F03CEFC3169B
:1017E0003FEFD3060CF010683296EA0DFB1D552032
:1017F00019F08291803361F017FF7DCF81E0850D74
:101800008C87852D90E0C816D9063CF45C1873CF00
:101810005A94EDCF91E09C876ECF512C6CCF85E030
:1018200090E071CF81E090E06ECFB70180E290E070
:101830000E945F0F4A947BCFB70180E390E00E9443
:101840005F0F4A947FCF80E3B0CFC814D90441F42E
:101850009A81963350F4953319F43E8534FF05C0D0
:10186000B70190E00E945F0F18CF81E3F9CF8A8122
:10187000813319F09E859F7E9E87B70190E00E947C
:101880005F0F511024C014FD38C085E690E0B70109
:101890000E945F0FD7FC06C0C114D10489F5EE8504
:1018A000E4FF2EC0D194C194D1088DE2B70190E03D
:1018B0000E945F0F80E32AE0C216D1041CF5B70135
:1018C00090E00E945F0FB701C601C096CBCFB70171
:1018D0008EE290E00E945F0F5394539482E001E007
:1018E000080FF501E80FF11D8081B70190E00E941B
:1018F0005F0F802F0511F3CFC6CF85E490E0C7CFEF
:101900008BE2D4CF8F5FFAE0CF1AD108D4CF8336E1
:10191000C1F0833709F443C0833509F05EC0360156
:10192000F2E06F0E711CF601C080D18006FF4BC043
:10193000652D70E0C6010E94190F9D878C87006895
:101940000DC0360132E0630E711CF601808189837F
:1019500021E030E03D872C8765010F7703FD07C04C
:10196000892D90E02C853D852817390778F1492C81
:10197000EC85FD85EF2B09F490CEF60107FD8591EE
:1019800007FF81916F01B70190E00E945F0F411046
:101990004A948C859D8501979D878C87E9CF360178
:1019A00032E0630E711CF601C080D18006FF08C0D2
:1019B000652D70E0C6010E94240F9D878C87CDCFD6
:1019C0006FEF7FEFF7CF6FEF7FEFB4CFB70180E21C
:1019D00090E00E945F0F9A94C3CF843611F089364D
:1019E000C1F5360107FF2AC0F4E06F0E711CF60145
:1019F0006081718182819381102F1F7697FF08C0CB
:101A000090958095709561957F4F8F4F9F4F10688F
:101A10002AE030E0A5010E94B20FC82ECA1816FFB6
:101A200059C0012F0E7FC51408F090C014FF04C0E8
:101A300012FD02C0012F0E7ED52C4EC0F2E06F0EBB
:101A4000711CF60160817181072E000C880B990BC7
:101A5000D3CF102F8537A9F41F7E2AE030E036015E
:101A600017FF2FC0F4E06F0E711CF60160817181C9
:101A700082819381A5010E94B20FC82ECA181F77D8
:101A8000CECF197F8F36D1F048F4883591F0F70129
:101A9000868197816096E2E10C94260E803739F0BA
:101AA0008837A9F714FD146020E130E0D8CF106129
:101AB000F9CF04FD166020E132E0D1CF28E030E01C
:101AC000CECFF2E06F0E711CF6016081718180E073
:101AD00090E0D0CFDC2C012F04FF41C0FE01EC0DC3
:101AE000F11D80818033A1F5097EF02FF8704F2E13
:101AF00003FD43C000FF3DC05C2CD91410F4590C09
:101B00005D1804FF42C0B70180E390E00E945F0FC0
:101B100002FF07C001FD36C088E790E0B7010E94D0
:101B20005F0FC51408F43EC0CA940C2D10E00F5F7F
:101B30001F4F0A0D1B1DF80182918F01B70190E024
:101B40000E945F0F0A151B05B1F7A7CDDC2CC4CF8F
:101B500002FD02C0D394C9CFD394D394C6CF802FB3
:101B6000867819F2F7CFB70180E290E00E945F0F0C
:101B7000D394D914C0F3412CC4CFD914E0F7492C25
:101B80004D18BFCF88E590E0C9CF802F867849F205
:101B900001FF06C08BE207FD8DE2B70190E0BFCFE9
:101BA00080E2F9CFB70180E390E00E945F0F5A9482
:101BB000B8CF8FEF9FEF6ECF24E0291508F477CDD3
:101BC000412C5ACDAA1BBB1B51E107C0AA1FBB1F4A
:101BD000A617B70710F0A61BB70B881F991F5A95B9
:101BE000A9F780959095BC01CD01089597FB072E2C
:101BF00016F4009407D077FD09D00E94E20D07FC8F
:101C000005D03EF4909581959F4F0895709561950C
:101C10007F4F08952F923F924F925F926F927F92E3
:101C20008F929F92AF92BF92CF92DF92EF92FF92EC
:101C30000F931F93CF93DF93CDB7DEB7CA1BDB0B98
:101C40000FB6F894DEBF0FBECDBF09942A8839883D
:101C500048885F846E847D848C849B84AA84B98444
:101C6000C884DF80EE80FD800C811B81AA81B98150
:101C7000CE0FD11D0FB6F894DEBF0FBECDBFED0164
:101C80000895283008F027E03327DA01990F311D35
:101C900087FD916000966105710539F432602E5F11
:101CA0003D9330E32A95E1F708959F3F30F0803867
:101CB0007105610509F03C5F3C5F3D93913008F090
:101CC0008068911DDF93CF931F930F93FF92EF9244
:101CD000192F987F9695E92F96959695E90FFF27EE
:101CE000E653FF4F99273327EE24FF24A701E7018E
:101CF00005900894079428F4360FE71EF81E491F34
:101D0000511D660F771F881F991F0694A1F7059034
:101D1000079428F4E70EF81E491F561FC11D770FC0
:101D2000881F991F661F0694A1F70590079428F451
:101D3000F80E491F561FC71FD11D880F991F661F18
:101D4000771F0694A1F70590079420F4490F561FBA
:101D5000C71FD81F990F661F771F881F0694A9F702
:101D600084911095177041F0D695C7955795479572
:101D7000F794E7941A95C1F7E0E7F0E068941590BE
:101D8000159135916591959105907FE27395E118D4
:101D9000F10A430B560BC90BD009C0F7E10CF11E39
:101DA000431F561FC91FD01D7EF4703311F48A954E
:101DB000E6CFE894015030F0080F0AF4002702172C
:101DC00008F4202F2395022F7A3328F079E37D93AE
:101DD0002A95E9F710C07D932A9589F60694979580
:101DE0006795379517951794E118F10A430B560B31
:101DF000C90BD00998F023957E9173957A3308F03A
:101E000070E37C932013B8F77E9170617D9330F07E
:101E1000839571E37D9370E32A95E1F71124EF90A8
:101E2000FF900F911F91CF91DF91992787FD90959A
:101E30000895FC010590615070400110D8F780951D
:101E400090958E0F9F1F0895FC0161507040019086
:101E50000110D8F7809590958E0F9F1F08954532F9
:101E6000510520F4423010F00C943A0FFB0110821F
:101E7000CB010895BB274A3031F4992322F4BDE207
:101E8000909581959F4F0C94460FBB27FB015527DA
:101E9000AA27880F991FAA1FA41710F0A41B8395C7
:101EA0005051B9F7A05DAA3308F0A95DA19300973E
:101EB00079F7B111B1931192CB010C9410100F93DB
:101EC0001F93CF93DF93182F092FEB018B8181FD97
:101ED00009C01FEF0FEF812F902FDF91CF911F913E
:101EE0000F91089582FF14C02E813F818C819D81C6
:101EF000281739073CF4E881F981CF0101969983CD
:101F0000888310838E819F8101969F838E83E3CF88
:101F1000E885F985812F0995892BA1F3DACFAEE009
:101F2000B0E0E5E9FFE00C94180E0D891E8986E00B
:101F30008C831A8309838FEF9FE79E838D83AE0185
:101F4000475E5F4F6F89788DCE0101960E945C0AD3
:101F50002F813885020F131FF80110822E96E4E0BE
:101F60000C94340EFA01AA27283051F1203181F166
:101F7000E8946F936E7F6E5F7F4F8F4F9F4FAF4F91
:101F8000B1E03ED0B4E03CD0670F781F891F9A1FA4
:101F9000A11D680F791F8A1F911DA11D6A0F711D58
:101FA000811D911DA11D20D009F468943F912AE064
:101FB000269F11243019305D3193DEF6CF0108954C
:101FC000462F4770405D4193B3E00FD0C9F7F6CF7D
:101FD000462F4F70405D4A3318F0495D31FD405245
:101FE000419302D0A9F7EACFB4E0A69597958795DB
:101FF00077956795BA95C9F70097610571050895BA
:102000009B01AC010A2E0694579547953795279565
:10201000BA95C9F7620F731F841F951FA01D0895FD
:10202000DC01FC01672F71917723E1F7329704C03F
:102030007C916D9370836291AE17BF07C8F30895CA
:04204000F894FFCF42
:1020440001004C0046000600410043000B001C0048
:1020540000001C420300D200FA002C015E01900132
:10206400C201F401260258028A02A302B202D0027B
:10207400EE027765616B00202020202000410025BE
:10208400322E3166560025312E316656006B6D684E
:1020940020006B6D68004B0065636F202000736D3A
:1020A4006172740073706F7274004261727427738A
:0C20B40000626C696E6B2D31004400006E
:00000001FF
