:100000000C9434000C9451000C9451000C94510049
:100010000C9451000C9451000C9451000C9451001C
:100020000C9451000C9451000C9451000C9451000C
:100030000C9451000C9451000C9451000C945100FC
:100040000C9451000C9451000C9451000C945100EC
:100050000C9451000C9451000C9451000C945100DC
:100060000C9451000C94510011241FBECFEFD8E026
:10007000DEBFCDBF11E0A0E0B1E0ECEDF9E002C0E1
:1000800005900D92A232B107D9F721E0A2E2B1E0CA
:1000900001C01D92A833B207E1F70E9432030C940D
:1000A000EC040C94000080917C00816080937C00C3
:1000B00080917C008D7F80937C0080917A008064A9
:1000C00080937A0080917A0086FDFCCF8091780041
:1000D0009091790090933301809332012091320105
:1000E0003091330180912001909121018217930773
:1000F0000CF060C081E090E090933101809330017A
:1001000080917C008E7F80937C0080917C00826057
:1001100080937C0080917A00806480937A00809143
:100120007A0086FDFCCF80917800909179009093C1
:100130002901809328012091280130912901809183
:1001400020019091210182179307CCF581E090E086
:100150009093350180933401459A80917C008160B1
:1001600080937C0080917C00826080937C008091F1
:100170007A00806480937A0080917A0086FDFCCFBB
:1001800080917800909179009093250180932401CB
:10019000209124013091250180912001909121012D
:1001A0008217930794F481E090E090932D0180935F
:1001B0002C0108951092310110923001A1CF1092BC
:1001C0003501109234014598C8CF10922D0110923C
:1001D0002C010895CF93DF9300D0CDB7DEB79A837B
:1001E000898389819A81892B99F45B988091B000E9
:1001F0008F778093B0002B985998809180008F77EB
:1002000080938000299A5A9A84B5806884BD5E9A4A
:1002100089819A81019799F45A9884B58F7784BD22
:100220005E985998809180008F7780938000299AFA
:100230005B9A8091B00080688093B0002B9A89818E
:100240009A81029799F45998809180008F778093D2
:10025000800029985A9884B58F7784BD5E9A5B9AFE
:100260008091B00080688093B0002B9A89819A8138
:10027000039799F45B988091B0008F778093B000DA
:100280002B98599A80918000806880938000299AE9
:100290005A9884B58F7784BD5E9A89819A81049734
:1002A00099F45A9884B58F7784BD5E98599A809155
:1002B0008000806880938000299A5B988091B000CC
:1002C0008F778093B0002B9A89819A81059799F452
:1002D0005998809180008F778093800029985A9A4E
:1002E00084B5806884BD5E9A5B988091B0008F77FA
:1002F0008093B0002B9A0F900F90DF91CF910895CB
:100300001F9B18C04D9B16C04F9B14C0189B12C05A
:10031000809100019091010190932F0180932E0113
:10032000109227011092260181E090E0909337010E
:10033000809336011F9B16C04D9B14C04F9B12C06B
:10034000189910C0809100019091010190932F01A4
:1003500080932E01109227011092260110923701EE
:10036000109236011F9B18C04D9B16C04F9914C0A8
:10037000189B12C0809102019091030190932F016C
:1003800080932E0181E090E09093270180932601D5
:1003900010923701109236011F9B18C04D9B16C05A
:1003A0004F9914C0189912C08091040190910501D1
:1003B00090932F0180932E0181E090E0909327018C
:1003C0008093260110923701109236011F9B18C0AE
:1003D0004D9916C04F9B14C0189B12C08091060106
:1003E0009091070190932F0180932E0181E090E07E
:1003F00090932701809326011092370110923601C5
:100400001F9B18C04D9916C04F9B14C0189912C05D
:10041000809108019091090190932F0180932E0102
:1004200081E090E09093270180932601109237019C
:10043000109236011F9B18C04D9916C04F9914C0D9
:10044000189B12C080910A0190910B0190932F018B
:1004500080932E0181E090E0909327018093260104
:1004600010923701109236011F9B18C04D9916C08B
:100470004F9914C0189912C080910C0190910D01F0
:1004800090932F0180932E0181E090E090932701BB
:100490008093260110923701109236011F9918C0DF
:1004A0004D9B16C04F9B14C0189B12C080910E012B
:1004B00090910F0190932F0180932E0181E090E0A5
:1004C00090932701809326011092370110923601F4
:1004D0001F9918C04D9B16C04F9B14C0189912C08D
:1004E000809110019091110190932F0180932E0122
:1004F00081E090E0909327018093260110923701CC
:10050000109236011F9918C04D9B16C04F9914C008
:10051000189B12C0809112019091130190932F01AA
:1005200080932E0181E090E0909327018093260133
:1005300010923701109236011F9918C04D9B16C0BA
:100540004F9914C0189912C080911401909115010F
:1005500090932F0180932E0181E090E090932701EA
:100560008093260110923701109236011F9918C00E
:100570004D9916C04F9B14C0189B12C08091160154
:100580009091170190932F0180932E0181E090E0CC
:100590009093270180932601109237011092360123
:1005A0001F9918C04D9916C04F9B14C0189912C0BE
:1005B000809118019091190190932F0180932E0141
:1005C00081E090E0909327018093260110923701FB
:1005D000109236011F9918C04D9916C04F9914C03A
:1005E000189B12C080911A0190911B0190932F01CA
:1005F00080932E0181E090E0909327018093260163
:1006000010923701109236011F9918C04D9916C0EB
:100610004F9914C0189912C080911C0190911D012E
:1006200090932F0180932E0181E090E09093270119
:1006300080932601109237011092360180912E018D
:1006400090912F0187BD80912E0190912F01909361
:1006500089008093880080912E0190912F018093D2
:10066000B3000895249A269A219A569A239A519A69
:10067000529A539A39983A983B9827985598579890
:1006800020982F9A5D9A5F9A289A3D9A80917C00D3
:10069000806480937C0080917A00816080937A00EE
:1006A00080917A00826080937A0080917A008068DD
:1006B00080937A0017BC84B58F7784BD84B582603F
:1006C00084BD84B5816084BD85B5816085BD85B5F7
:1006D000826085BD10928900109288008091800010
:1006E0008F7780938000809180008160809380006C
:1006F0008091810088608093810080918100816079
:1007000080938100809181008260809381001092AB
:10071000B3008091B0008F778093B0008091B000DB
:1007200081608093B0008091B00082608093B000BF
:100730008091B10084608093B1008091B1008D7F81
:100740008093B1000E9453000E948001809130018B
:1007500090913101019709F0E1C0809134019091AD
:100760003501892B09F0DAC080912C0190912D017F
:10077000019709F0D3C02E9A2C9A8091260190916E
:100780002701019709F0CDC0809136019091370182
:10079000892B09F0C6C085B5816085BD85B58260AD
:1007A00085BD80918100816080938100809181006E
:1007B0008260809381008091B10084608093B10059
:1007C0008091B1008D7F8093B10080913001909134
:1007D00031010197A9F48091340190913501892B61
:1007E00079F4C0912C01D0912D01C130D10541F493
:1007F00081E090E00E94EA00D0932B01C0932A018F
:1008000080913001909131010197B1F480913401D0
:1008100090913501892B81F480912C0190912D01CB
:10082000892B51F482E090E00E94EA0082E090E09F
:1008300090932B0180932A01809130019091310196
:100840000197B1F48091340190913501019781F4C1
:1008500080912C0190912D01892B51F483E090E03F
:100860000E94EA0083E090E090932B0180932A019C
:100870008091300190913101892BB1F48091340144
:1008800090913501019781F480912C0190912D0177
:10089000892B51F484E090E00E94EA0084E090E02B
:1008A00090932B0180932A01809130019091310126
:1008B000892BB1F48091340190913501019781F435
:1008C00080912C0190912D01019751F485E090E0E9
:1008D0000E94EA0085E090E090932B0180932A012A
:1008E0008091300190913101892B09F02BCF8091BB
:1008F000340190913501892B09F024CF80912C018E
:1009000090912D01019709F01DCF80E090E00E94A9
:10091000EA0010922B0110922A0114CF2E982C98E5
:100920002CCF8091260190912701892B09F040C09E
:1009300080913601909137010197D1F585B58E7F71
:1009400085BD85B5826085BD809181008E7F809355
:100950008100809181008260809381008091B1004C
:100960008B7F8093B1008091B10082608093B10051
:1009700080911E0190911F019093890080938800BF
:1009800080918000806880938000599880911E013A
:1009900087BD84B5806884BD5A9880911E0180937C
:1009A000B3008091B00080688093B0005B98CACE9D
:1009B0005998809180008F778093800029985A9869
:1009C00084B58F7784BD5E985B988091B0008F77F7
:0C09D0008093B0002B98B6CEF894FFCFB7
:1009DC0000001E003C005A0078008C00A000B400FF
:1009EC00C800D200DC00EB00F500FA00FF00960016
:0209FC00900168
:00000001FF
